:020000040800F2
:10000000008001208D0D0008150D00081B0D000853
:10001000210D0008270D00082D0D0008000000002C
:10002000000000000000000000000000330D000888
:10003000410D0008000000004F0D00085D0D000894
:10004000DD0D0008DD0D0008DD0D0008DD0D0008E8
:10005000DD0D0008DD0D0008DD0D0008DD0D0008D8
:10006000DD0D0008DD0D0008DD0D0008DD0D0008C8
:10007000DD0D0008DD0D0008DD0D0008DD0D0008B8
:10008000DD0D0008DD0D0008DD0D0008DD0D0008A8
:10009000DD0D0008DD0D0008DD0D0008DD0D000898
:1000A000DD0D0008DD0D0008DD0D0008DD0D000888
:1000B000DD0D0008DD0D0008DD0D0008DD0D000878
:1000C000DD0D0008DD0D0008DD0D0008DD0D000868
:1000D000DD0D0008DD0D0008DD0D0008DD0D000858
:1000E000DD0D0008DD0D0008DD0D0008DD0D000848
:1000F000DD0D0008DD0D0008DD0D0008DD0D000838
:10010000DD0D0008DD0D0008DD0D0008DD0D000827
:10011000DD0D0008DD0D0008DD0D0008DD0D000817
:10012000DD0D0008DD0D0008DD0D0008DD0D000807
:10013000DD0D0008DD0D0008DD0D0008DD0D0008F7
:10014000DD0D0008DD0D0008DD0D0008DD0D0008E7
:10015000DD0D0008DD0D0008DD0D0008DD0D0008D7
:10016000DD0D0008DD0D0008DD0D0008DD0D0008C7
:10017000DD0D0008DD0D0008DD0D000800000000A9
:08018000DD0D0008DD0D000893
:1001880010B5054C237833B9044B13B10448AFF3C9
:1001980000800123237010BD9000002000000000A3
:1001A800902F000808B5034B1BB103490348AFF370
:1001B800008008BD0000000094000020902F000877
:1001C80081F0004102E000BF83F0004330B54FEA00
:1001D80041044FEA430594EA050F08BF90EA020F6D
:1001E8001FBF54EA000C55EA020C7FEA645C7FEA00
:1001F800655C00F0E2804FEA5454D4EB5555B8BF23
:100208006D420CDD2C4480EA020281EA030382EA93
:10021800000083EA010180EA020281EA0303362D25
:1002280088BF30BD11F0004F4FEA01314FF4801CF8
:100238004CEA113102D0404261EB410113F0004F0A
:100248004FEA03334CEA133302D0524263EB4303C1
:1002580094EA050F00F0A780A4F10104D5F1200E5F
:100268000DDB02FA0EFC22FA05F2801841F10001BA
:1002780003FA0EF2801843FA05F359410EE0A5F18E
:1002880020050EF1200E012A03FA0EFC28BF4CF0BF
:10029800020C43FA05F3C01851EBE37101F0004575
:1002A80007D54FF0000EDCF1000C7EEB00006EEB82
:1002B8000101B1F5801F1BD3B1F5001F0CD349080C
:1002C8005FEA30004FEA3C0C04F101044FEA445263
:1002D80012F5800F80F09A80BCF1004F08BF5FEAEA
:1002E800500C50F1000041EB045141EA050130BDCA
:1002F8005FEA4C0C404141EB0101013C28BFB1F5DC
:10030800801FE9D291F0000F04BF01460020B1FA26
:1003180081F308BF2033A3F10B03B3F120020CDAF9
:100328000C3208DD02F1140CC2F10C0201FA0CF0D7
:1003380021FA02F10CE002F11402D8BFC2F1200C3C
:1003480001FA02F120FA0CFCDCBF41EA0C019040F2
:10035800E41AA2BF01EB0451294330BD6FEA04043B
:100368001F3C1CDA0C340EDC04F11404C4F1200226
:1003780020FA04F001FA02F340EA030021FA04F338
:1003880045EA030130BDC4F10C04C4F1200220FA8F
:1003980002F001FA04F340EA0300294630BD21FACD
:1003A80004F0294630BD94F0000F83F4801306BF93
:1003B80081F480110134013D4EE77FEA645C18BF87
:1003C8007FEA655C29D094EA050F08BF90EA020F1E
:1003D80005D054EA000C04BF1946104630BD91EA16
:1003E800030F1EBF0021002030BD5FEA545C05D119
:1003F8004000494128BF41F0004130BD14F5800458
:100408003CBF01F5801130BD01F0004545F0FE41CB
:1004180041F470014FF0000030BD7FEA645C1ABF00
:10042800194610467FEA655C1CBF0B46024650EA37
:10043800013406BF52EA033591EA030F41F4002163
:1004480030BD00BF90F0000F04BF0021704730B5E9
:100458004FF4806404F132044FF000054FF00001BE
:1004680050E700BF90F0000F04BF0021704730B57F
:100478004FF4806404F1320410F0004548BF404254
:100488004FF000013EE700BF42004FEAE2014FEAA9
:1004980031014FEA02701FBF12F07F4393F07F4F84
:1004A80081F06051704732F07F4208BF704793F087
:1004B8007F4F04BF41F40021704730B54FF460749A
:1004C80001F0004521F000411CE700BF50EA01029D
:1004D80008BF704730B54FF000050AE050EA010246
:1004E80008BF704730B511F0004502D5404261EBB6
:1004F80041014FF4806404F132045FEA915C3FF4F7
:10050800D8AE4FF003025FEADC0C18BF03325FEA93
:10051800DC0C18BF033202EBDC02C2F1200300FA44
:1005280003FC20FA02F001FA03FE40EA0E0021FA69
:1005380002F11444BDE600BF70B54FF0FF0C4CF457
:10054800E06C1CEA11541DBF1CEA135594EA0C0F09
:1005580095EA0C0F00F0DEF82C4481EA030621EA44
:100568004C5123EA4C5350EA013518BF52EA03357F
:1005780041F4801143F4801338D0A0FB02CE4FF031
:100588000005E1FB02E506F00042E0FB03E54FF061
:100598000006E1FB03569CF0000F18BF4EF0010E59
:1005A800A4F1FF04B6F5007F64F5407404D25FEA55
:1005B8004E0E6D4146EB060642EAC62141EA555108
:1005C8004FEAC52040EA5E504FEACE2EB4F1FD0C4A
:1005D80088BFBCF5E06F1ED8BEF1004F08BF5FEAC8
:1005E800500E50F1000041EB045170BD06F000467A
:1005F80046EA010140EA020081EA0301B4EB5C0427
:10060800C2BFD4EB0C0541EA045170BD41F480111E
:100618004FF0000E013C00F3AB8014F1360FDEBF43
:10062800002001F0004170BDC4F10004203C35DA1F
:100638000C341BDC04F11404C4F1200500FA05F3A2
:1006480020FA04F001FA05F240EA020001F0004243
:1006580021F0004110EBD37021FA04F642EB0601B9
:100668005EEA430E08BF20EAD37070BDC4F10C04E3
:10067800C4F1200500FA04F320FA05F001FA04F2A7
:1006880040EA020001F0004110EBD37041F1000193
:100698005EEA430E08BF20EAD37070BDC4F120059E
:1006A80000FA05F24EEA020E20FA04F301FA05F206
:1006B80043EA020321FA04F001F0004121FA04F2AE
:1006C80020EA020000EBD3705EEA430E08BF20EA7E
:1006D800D37070BD94F0000F0FD101F000464000B8
:1006E80041EB010111F4801F08BF013CF7D041EA3A
:1006F800060195F0000F18BF704703F0004652003E
:1007080043EB030313F4801F08BF013DF7D043EA0E
:100718000603704794EA0C0F0CEA135518BF95EAC4
:100728000C0F0CD050EA410618BF52EA4306D1D14B
:1007380081EA030101F000414FF0000070BD50EA6A
:10074800410606BF1046194652EA430619D094EAF4
:100758000C0F02D150EA013613D195EA0C0F05D1DE
:1007680052EA03361CBF104619460AD181EA030132
:1007780001F0004141F0FE4141F470014FF00000EA
:1007880070BD41F0FE4141F4780170BD70B54FF085
:10079800FF0C4CF4E06C1CEA11541DBF1CEA135505
:1007A80094EA0C0F95EA0C0F00F0A7F8A4EB0504E7
:1007B80081EA030E52EA03354FEA013100F08880DE
:1007C8004FEA03334FF0805545EA131343EA1263A7
:1007D8004FEA022245EA111545EA10654FEA00265C
:1007E8000EF000419D4208BF964244F1FD0404F515
:1007F800407402D25B084FEA3202B61A65EB030571
:100808005B084FEA32024FF480104FF4002CB6EB2D
:10081800020E75EB030E22BFB61A754640EA0C00AD
:100828005B084FEA3202B6EB020E75EB030E22BFED
:10083800B61A754640EA5C005B084FEA3202B6EB2E
:10084800020E75EB030E22BFB61A754640EA9C00ED
:100858005B084FEA3202B6EB020E75EB030E22BFBD
:10086800B61A754640EADC0055EA060E18D04FEA7B
:10087800051545EA16754FEA06164FEAC30343EA1B
:1008880052734FEAC2025FEA1C1CC0D111F4801FE8
:100898000BD141EA00014FF000004FF0004CB6E7E1
:1008A80011F4801F04BF01430020B4F1FD0C88BF80
:1008B800BCF5E06F3FF6AFAEB5EB030C04BFB6EB8B
:1008C800020C5FEA500C50F1000041EB045170BD7E
:1008D8000EF0004E4EEA113114EB5C04C2BFD4EBAB
:1008E8000C0541EA045170BD41F480114FF0000E2F
:1008F800013C90E645EA060E8DE60CEA135594EAAB
:100908000C0F08BF95EA0C0F3FF43BAF94EA0C0FAD
:100918000AD150EA01347FF434AF95EA0C0F7FF422
:1009280025AF104619462CE795EA0C0F06D152EA76
:1009380003353FF4FDAE1046194622E750EA41065A
:1009480018BF52EA43067FF4C5AE50EA41047FF46B
:100958000DAF52EA43057FF4EBAE12E74FF0FF3CD0
:1009680006E000BF4FF0010C02E000BF4FF0010CA1
:100978004DF804CD4FEA410C7FEA6C5C4FEA430C1A
:1009880018BF7FEA6C5C1BD001B050EA410C0CBF69
:1009980052EA430C91EA030F02BF90EA020F0020CB
:1009A800704710F1000F91EA030F58BF994208BF32
:1009B80090422CBFD8176FEAE37040F001007047EF
:1009C8004FEA410C7FEA6C5C02D150EA013C07D146
:1009D8004FEA430C7FEA6C5CD6D152EA033CD3D091
:1009E8005DF8040B704700BF8446104662468C468B
:1009F8001946634600E000BF01B5FFF7B7FF0028BE
:100A080048BF10F1000F01BD4DF808EDFFF7F4FFE6
:100A18000CBF012000205DF808FB00BF4DF808ED71
:100A2800FFF7EAFF34BF012000205DF808FB00BF94
:100A38004DF808EDFFF7E0FF94BF012000205DF8B6
:100A480008FB00BF4DF808EDFFF7CEFF94BF01206B
:100A580000205DF808FB00BF4DF808EDFFF7C4FF64
:100A680034BF012000205DF808FB00BF4FEA410CAD
:100A78007FEA6C5C02D150EA013C0AD14FEA430C90
:100A88007FEA6C5C02D152EA033C02D14FF00000CD
:100A980070474FF0010070474FEA410212F500120B
:100AA80015D211D56FF47873B3EB625212D94FEAAD
:100AB800C12343F0004343EA505311F0004F23FA97
:100AC80002F018BF404270474FF00000704750EAEC
:100AD800013005D111F0004008BF6FF000407047A9
:100AE8004FF00000704700BF80B586B000AF786057
:100AF80039603B68013B7B6100233B6132E07869E8
:100B0800FFF7B0FC02460B4643EC112B9FED1A0B86
:100B180001F000FB53EC102B10461946FFF7BCFF01
:100B28000346FB607A68FB681340002B0AD0144A1E
:100B38003B6952F823309BB201221946114800F054
:100B480073FC09E00E4A3B6952F823309BB200223D
:100B580019460C4800F068FC7B69013B7B613B69E6
:100B680001333B613A693B689A42C8DB00BF00BF6A
:100B78001837BD4680BD00BF0000000000000040DF
:100B8800000000200008004880B500AF00F023F9FD
:100B980000F01CF800F060F80B4B1B6808211846A1
:100BA800FFF7A2FF084B1B68FF2B03D1064B00225F
:100BB8001A6004E0044B1B680133034A13603220B7
:100BC80000F07EF9E8E700BFAC00002080B596B0E1
:100BD80000AF07F1140344220021184601F068FA17
:100BE8003B4600221A605A609A60DA601A614FF434
:100BF800007000F03FFC0346002B01D000F05CF8C9
:100C080010237B610123FB6200233B6360237B632A
:100C18000023FB6307F11403184600F081FC034628
:100C2800002B01D000F048F80F233B6000237B60C5
:100C38000023BB600023FB6000233B613B4600218F
:100C4800184601F049F80346002B01D000F034F8AB
:100C580000BF5837BD4680BD80B586B000AF3B1D8C
:100C680000221A605A609A60DA601A61104BDB6CD5
:100C78000F4A43F00403D3640D4BDB6C03F0040309
:100C88003B603B680022FF210A4800F0CDFBFF23B0
:100C98007B600123BB600023FB6000233B613B1D9D
:100CA8001946044800F016FA00BF1837BD4680BD43
:100CB800001002400008004880B400AF72B600BFC0
:100CC800FEE7000080B483B000AF0F4B1B6E0E4AE6
:100CD80043F0010313660C4B1B6E03F001037B60AA
:100CE8007B68094B9B6D084A43F080539365064B1C
:100CF8009B6D03F080533B603B6800BF0C37BD46DB
:100D08005DF8047B704700BF0010024080B400AF5C
:100D1800FEE780B400AFFEE780B400AFFEE780B422
:100D280000AFFEE780B400AFFEE780B400AF00BFBD
:100D3800BD465DF8047B704780B400AF00BFBD4678
:100D48005DF8047B704780B400AF00BFBD465DF816
:100D5800047B704780B500AF00F092F800BF80BDFB
:100D680080B400AF064BD3F88830054A43F47003CB
:100D7800C2F8883000BFBD465DF8047B704700BFED
:100D880000ED00E0DFF834D0FFF7EAFF0C480D492A
:100D98000D4A002302E0D458C4500433C4188C42CE
:100DA800F9D30A4A0A4C002301E013600432A24234
:100DB800FBD301F08BF9FFF7E7FEFEE70080012087
:100DC8000000002090000020203000089000002043
:100DD800EC010020FEE780B582B000AF0023FB7174
:100DE800032000F043F90F2000F00EF80346002B13
:100DF80002D00123FB7101E0FFF764FFFB7918467D
:100E08000837BD4680BD000080B584B000AF78606B
:100E18000023FB73174B1B78002B23D0164B1A6843
:100E2800144B1B7819464FF47A73B3FBF1F3B2FBFA
:100E3800F3F3184600F041F90346002B0FD17B6805
:100E48000F2B09D8002279684FF0FF3000F019F90C
:100E58000A4A7B68136007E00123FB7304E001235F
:100E6800FB7301E00123FB73FB7B18461037BD467B
:100E780080BD00BF280000202000002024000020A2
:100E880080B400AF064B1B781A46064B1B68134408
:100E9800044A136000BFBD465DF8047B704700BF7D
:100EA80028000020B000002080B400AF034B1B686E
:100EB8001846BD465DF8047B704700BFB0000020AF
:100EC80080B584B000AF7860FFF7EEFFB8607B684C
:100ED800FB60FB68B3F1FF3F05D00A4B1B781A464D
:100EE800FB681344FB6000BFFFF7DEFF0246BB68E8
:100EF800D31AFA689A42F7D800BF00BF1037BD4628
:100F080080BD00BF2800002080B485B000AF7860A5
:100F18007B6803F00703FB600C4BDB68BB60BA68B7
:100F28004FF6FF031340BB60FB681A02BB6813430C
:100F380043F0BF6343F40033BB60044ABB68D3602B
:100F480000BF1437BD465DF8047B704700ED00E034
:100F580080B400AF044BDB681B0A03F00703184694
:100F6800BD465DF8047B704700ED00E080B483B0B7
:100F780000AF03463960FB7197F90730002B0ADB95
:100F88003B68DAB20C4997F907301201D2B20B4428
:100F980083F800230AE03B68DAB20849FB7903F0DA
:100FA8000F03043B1201D2B20B441A7600BF0C3770
:100FB800BD465DF8047B704700E100E000ED00E00D
:100FC80080B489B000AFF860B9607A60FB6803F05C
:100FD8000703FB61FB69C3F10703042B28BF042344
:100FE800BB61FB690433062B02D9FB69033B00E0B4
:100FF80000237B614FF0FF32BB6902FA03F3DA4347
:10100800BB681A407B699A404FF0FF317B6901FA4F
:1010180003F3D9437B680B40134318462437BD4676
:101028005DF8047B7047000080B582B000AF78603F
:101038007B68013BB3F1807F01D301230FE00A4AAB
:101048007B68013B53600F214FF0FF30FFF78EFFA5
:10105800054B00229A60044B07221A6000231846A9
:101068000837BD4680BD00BF10E000E080B582B003
:1010780000AF78607868FFF747FF00BF0837BD46C4
:1010880080BD80B586B000AF0346B9607A60FB7357
:1010980000237B61FFF75CFF78617A68B96878693B
:1010A800FFF78EFF024697F90F3011461846FFF7F3
:1010B8005DFF00BF1837BD4680BD80B582B000AF68
:1010C80078607868FFF7B0FF034618460837BD46D2
:1010D80080BD000080B487B000AF7860396000231D
:1010E8007B617FE13B681A6801217B6901FA03F3A0
:1010F8001340FB60FB68002B00F071813B685B6864
:1011080003F00303012B05D03B685B6803F003037E
:10111800022B30D17B689B683B617B695B000322B3
:1011280002FA03F3DB433A6913403B613B68DA6830
:101138007B695B0002FA03F33A6913433B617B68FE
:101148003A699A607B685B683B6101227B6902FAB5
:1011580003F3DB433A6913403B613B685B681B0957
:1011680003F001027B6902FA03F33A6913433B6116
:101178007B683A695A603B685B6803F00303032B9A
:1011880018D17B68DB6A3B6101227B6902FA03F3B1
:10119800DB433A6913403B613B685B68DB0803F05B
:1011A80001027B6902FA03F33A6913433B617B68E6
:1011B8003A69DA623B685B6803F00303032B17D0D4
:1011C8007B68DB683B617B695B00032202FA03F3FF
:1011D800DB433A6913403B613B689A687B695B0073
:1011E80002FA03F33A6913433B617B683A69DA60B0
:1011F8003B685B6803F00303022B23D17B69DA08A1
:101208007B68083253F822303B617B6903F007039F
:101218009B000F2202FA03F3DB433A6913403B6158
:101228003B681A697B6903F007039B0002FA03F322
:101238003A6913433B617B69DA087B68083239698C
:1012480043F822107B681B683B617B695B000322C3
:1012580002FA03F3DB433A6913403B613B685B687E
:1012680003F003027B695B0002FA03F33A69134354
:101278003B617B683A691A603B685B6803F44033FA
:10128800002B00F0AC805F4B1B6E5E4A43F00103FD
:1012980013665C4B1B6E03F00103BB60BB685A4AC4
:1012A8007B699B08023352F823303B617B6903F06A
:1012B80003039B000F2202FA03F3DB433A6913404E
:1012C8003B617B68B3F1904F25D07B684F4A9342CE
:1012D8001FD07B684E4A934219D07B684D4A93428F
:1012E80013D07B684C4A93420DD07B684B4A93429B
:1012F80007D07B684A4A934201D106230CE00723B2
:101308000AE0052308E0042306E0032304E002239F
:1013180002E0012300E000237A6902F00302920050
:1013280093403A6913433B6137497B699B08023311
:101338003A6941F823203B4B9B683B61FB68DB43E0
:101348003A6913403B613B685B6803F48013002BE8
:1013580003D03A69FB6813433B61324A3B699360A7
:10136800304BDB683B61FB68DB433A6913403B6108
:101378003B685B6803F40013002B03D03A69FB68F1
:1013880013433B61274A3B69D360264B5B683B614B
:10139800FB68DB433A6913403B613B685B6803F4D5
:1013A8000033002B03D03A69FB6813433B611D4AA5
:1013B8003B6953601B4B1B683B61FB68DB433A6925
:1013C80013403B613B685B6803F48033002B03D018
:1013D8003A69FB6813433B61124A3B6913607B69B6
:1013E80001337B613B681A687B6922FA03F3002B9F
:1013F8007FF478AE00BF00BF1C37BD465DF8047BA4
:10140800704700BF0010024000000140000400487F
:1014180000080048000C004800100048001400486C
:10142800001800480004014080B483B000AF786021
:101438000B467B8013467B707B78002B03D07A8821
:101448007B689A6102E07A887B689A6200BF0C37F1
:10145800BD465DF8047B704780B400AF044B1B6841
:1014680003F4C0631846BD465DF8047B704700BFAF
:101478000070004080B485B000AF78607B68B3F539
:10148800007F30D1234B1B6803F4C063B3F5007FA2
:1014980038D0204B1B6823F4C0631E4A43F4007302
:1014A80013601D4B1B68322202FB03F31B4AA2FB8D
:1014B80003239B0C0133FB6002E0FB68013BFB60EC
:1014C800144B5B6903F48063B3F5806F02D1FB684A
:1014D800002BF2D10F4B5B6903F48063B3F5806F87
:1014E80010D103230FE00B4B1B6803F4C063B3F563
:1014F800806F07D0074B1B6823F4C063054A43F489
:1015080080631360002318461437BD465DF8047BDA
:10151800704700BF007000402000002083DE1B439E
:1015280080B588B000AF78607B68002B01D10123BB
:10153800CAE3974B9B6803F00C03BB61944BDB68D1
:1015480003F003037B617B681B6803F01003002B27
:1015580000F0E480BB69002B07D0BB690C2B40F07E
:101568008B807B69012B40F08780894B1B6803F0D7
:101578000203002B05D07B689B69002B01D1012356
:10158800A2E37B681A6A824B1B6803F00803002BEE
:1015980004D07F4B1B6803F0F00305E07C4BD3F8C5
:1015A80094301B0903F0F003934223D27B681B6A33
:1015B800184600F01DFD0346002B01D0012383E3EC
:1015C800734B1B68724A43F008031360704B1B6827
:1015D80023F0F0027B681B6A6D4913430B606C4B68
:1015E8005B6823F47F427B68DB691B02684913430D
:1015F8004B6025E0664B1B68654A43F0080313609F
:10160800634B1B6823F0F0027B681B6A6049134335
:101618000B605F4B5B6823F47F427B68DB691B02CE
:101628005B4913434B60BB69002B09D17B681B6A7C
:10163800184600F0DDFC0346002B01D0012343E3EC
:1016480000F04AFC0246524B9B681B0903F00F034B
:101658005049CB5C03F01F0322FA03F34E4A136090
:101668004E4B1B681846FFF7CFFB0346FB73FB7B0B
:10167800002B52D0FB7B27E37B689B69002B32D081
:10168800434B1B68424A43F001031360FFF70CFC0D
:10169800386108E0FFF708FC02463B69D31A022BC1
:1016A80001D9032310E33A4B1B6803F00203002B14
:1016B800F0D0374B1B68364A43F008031360344BAD
:1016C8001B6823F0F0027B681B6A314913430B60E7
:1016D8002F4B5B6823F47F427B68DB691B022C4934
:1016E80013434B601AE02A4B1B68294A23F0010375
:1016F8001360FFF7D9FB386108E0FFF7D5FB024616
:101708003B69D31A022B01D90323DDE2204B1B6866
:1017180003F00203002BF0D100E000BF7B681B68D8
:1017280003F00103002B74D0BB69082B05D0BB69FB
:101738000C2B0ED17B69032B0BD1154B1B6803F4C3
:101748000033002B64D07B685B68002B60D10123D9
:10175800BAE27B685B68B3F5803F06D10C4B1B6827
:101768000B4A43F48033136026E07B685B68B3F56B
:10177800A02F15D1064B1B68054A43F4802313603C
:10178800034B1B68024A43F48033136014E000BF24
:1017980000100240A82F000820000020240000208C
:1017A800A04B1B689F4A23F4803313609D4B1B6832
:1017B8009C4A23F4802313607B685B68002B13D05A
:1017C800FFF772FB386108E0FFF76EFB02463B69E2
:1017D800D31A642B01D9032376E2924B1B6803F4D6
:1017E8000033002BF0D014E0FFF75EFB386108E00F
:1017F800FFF75AFB02463B69D31A642B01D903232E
:1018080062E2884B1B6803F40033002BF0D100E040
:1018180000BF7B681B6803F00203002B60D0BB6924
:10182800042B05D0BB690C2B19D17B69022B16D16F
:101838007C4B1B6803F48063002B05D07B68DB6856
:10184800002B01D101233FE2764B5B6823F0F8526D
:101858007B681B691B06734913434B6040E07B6838
:10186800DB68002B23D06F4B1B686E4A43F48073F0
:101878001360FFF719FB386108E0FFF715FB024614
:101888003B69D31A022B01D903231DE2654B1B6860
:1018980003F48063002BF0D0624B5B6823F0F852AE
:1018A8007B681B691B065F4913434B6018E05D4B5F
:1018B8001B685C4A23F480731360FFF7F5FA3861FC
:1018C80008E0FFF7F1FA02463B69D31A022B01D967
:1018D8000323F9E1534B1B6803F48063002BF0D119
:1018E8007B681B6803F00803002B3CD07B685B69AE
:1018F800002B1CD04B4BD3F894304A4A43F00103D9
:10190800C2F89430FFF7D0FA386108E0FFF7CCFA54
:1019180002463B69D31A022B01D90323D4E1414B78
:10192800D3F8943003F00203002BEFD01BE03D4BBB
:10193800D3F894303B4A23F00103C2F89430FFF700
:10194800B3FA386108E0FFF7AFFA02463B69D31AE9
:10195800022B01D90323B7E1324BD3F8943003F0BB
:101968000203002BEFD17B681B6803F00403002BF4
:1019780000F0A6800023FB772A4B9B6D03F0805371
:10198800002B0DD1274B9B6D264A43F0805393655E
:10199800244B9B6D03F08053BB60BB680123FB772E
:1019A800214B1B6803F48073002B18D11E4B1B6856
:1019B8001D4A43F480731360FFF776FA386108E034
:1019C800FFF772FA02463B69D31A022B01D90323A7
:1019D8007AE1154B1B6803F48073002BF0D07B6809
:1019E8009B68012B08D10F4BD3F890300D4A43F078
:1019F8000103C2F8903029E07B689B68052B15D15C
:101A0800084BD3F89030074A43F00403C2F89030EB
:101A1800044BD3F89030034A43F00103C2F89030E6
:101A280014E000BF00100240007000409C4BD3F847
:101A380090309B4A23F00103C2F89030984BD3F8BA
:101A48009030974A23F00403C2F890307B689B6873
:101A5800002B16D0FFF728FA38610AE0FFF724FABE
:101A680002463B69D31A41F28832934201D90323D3
:101A78002AE18B4BD3F8903003F00203002BEDD012
:101A880015E0FFF711FA38610AE0FFF70DFA024690
:101A98003B69D31A41F28832934201D9032313E1F7
:101AA8007F4BD3F8903003F00203002BEDD1FB7F7E
:101AB800012B05D17A4B9B6D794A23F080539365AE
:101AC8007B689B6A002B00F0FE807B689B6A022B78
:101AD80040F0D080724BDB687B617B6903F00302C6
:101AE8007B68DB6A9A4230D17B6903F070027B68BD
:101AF8001B6B013B1B019A4227D17B6903F4FE4211
:101B08007B685B6B1B029A421FD17B6903F400332D
:101B18007A68926B072A14BF01220022D2B293423C
:101B280013D17B6903F4C0027B68DB6B5B08013B64
:101B38005B059A4209D17B6903F0C0627B681B6C24
:101B48005B08013B5B069A426ED0BB690C2B69D0DF
:101B5800534B1B6803F08063002B05D1504B1B6867
:101B680003F08053002B01D00123ADE04C4B1B68E0
:101B78004B4A23F080731360FFF796F9386108E049
:101B8800FFF792F902463B69D31A022B01D90323C6
:101B98009AE0434B1B6803F00073002BF0D1404BD5
:101BA800DA68404B13407A68D16A7A68126B013A56
:101BB800120111437A68526B120211437A68D26B90
:101BC8005208013A520511437A68126C5208013AD8
:101BD800520611437A68926B120952040A4330493B
:101BE8001343CB602E4B1B682D4A43F08073136060
:101BF8002B4BDB682A4A43F08073D360FFF754F914
:101C0800386108E0FFF750F902463B69D31A022B06
:101C180001D9032358E0224B1B6803F00073002B03
:101C2800F0D050E001234FE01D4B1B6803F0007318
:101C3800002B48D11A4B1B68194A43F08073136074
:101C4800174BDB68164A43F08073D360FFF72CF913
:101C5800386108E0FFF728F902463B69D31A022BDE
:101C680001D9032330E00E4B1B6803F00073002BEF
:101C7800F0D028E0BB690C2B23D0094B1B68084A1D
:101C880023F080731360FFF70FF938610CE0FFF75A
:101C98000BF902463B69D31A022B05D9032313E03B
:101CA800001002408C809DF9094B1B6803F00073FB
:101CB800002BECD1064BDA680549064B1340CB6084
:101CC80001E0012300E0002318462037BD4680BD0F
:101CD80000100240FCFFEEFE80B584B000AF7860D3
:101CE80039607B68002B01D10123E7E0754B1B6845
:101CF80003F007033A689A4210D9724B1B6823F025
:101D0800070270493B6813430B606E4B1B6803F076
:101D180007033A689A4201D00123CFE07B681B6829
:101D280003F00203002B10D07B689A68664B9B680F
:101D380003F0F0039A4208D9634B9B6823F0F00242
:101D48007B689B68604913438B607B681B6803F062
:101D58000103002B4CD07B685B68032B07D15A4BDF
:101D68001B6803F00073002B21D10123A6E07B68D8
:101D78005B68022B07D1544B1B6803F40033002B1C
:101D880015D101239AE07B685B68002B07D14E4B85
:101D98001B6803F00203002B09D101238EE04A4B94
:101DA8001B6803F48063002B01D1012386E0464BB6
:101DB8009B6823F003027B685B68434913438B608D
:101DC800FFF772F8F8600AE0FFF76EF80246FB6862
:101DD800D31A41F28832934201D903236EE03A4B79
:101DE8009B6803F00C027B685B689B009A42EBD10E
:101DF8007B681B6803F00203002B10D07B689A688D
:101E0800314B9B6803F0F0039A4208D22E4B9B6833
:101E180023F0F0027B689B682B4913438B60294BA6
:101E28001B6803F007033A689A4210D2254B1B68D7
:101E380023F0070223493B6813430B60214B1B68BF
:101E480003F007033A689A4201D0012336E07B6821
:101E58001B6803F00403002B08D01B4B9B6823F47A
:101E6800E0627B68DB68184913438B607B681B68FA
:101E780003F00803002B09D0134B9B6823F460522E
:101E88007B681B69DB00104913438B6000F024F862
:101E980002460D4B9B681B0903F00F030B49CB5CF3
:101EA80003F01F0322FA03F3094A1360094B1B6866
:101EB8001846FEF7A9FF0346FB72FB7A184610374F
:101EC800BD4680BD0020024000100240A82F000837
:101ED800200000202400002080B489B000AF002337
:101EE800FB610023BB613E4B9B6803F00C033B6125
:101EF8003B4BDB6803F00303FB603B69002B05D019
:101F08003B690C2B21D1FB68012B1ED1344B1B687C
:101F180003F00803002B07D1314BD3F894301B0A88
:101F280003F00F03FB6105E02D4B1B681B0903F051
:101F38000F03FB612B4AFB6952F82330FB613B69B5
:101F4800002B0DD1FB69BB610AE03B69042B02D170
:101F5800254BBB6104E03B69082B01D1234BBB61D6
:101F68003B690C2B34D11E4BDB6803F00303BB60C9
:101F7800BB68022B03D0BB68032B03D005E01A4BC8
:101F88007B6105E0194B7B6102E0FB697B6100BF67
:101F9800134BDB681B0903F0070301337B60104B0D
:101FA800DB681B0A03F07F037A6903FB02F27B6894
:101FB800B2FBF3F37B610A4BDB685B0E03F00303B0
:101FC80001335B003B607A693B68B2FBF3F3BB61AA
:101FD800BB6918462437BD465DF8047B704700BFCF
:101FE80000100240B82F00080024F40000127A0004
:101FF80080B586B000AF786000233B612A4B9B6DAB
:1020080003F08053002B03D0FFF726FA786114E021
:10201800254B9B6D244A43F080539365224B9B6D5F
:1020280003F08053FB60FB68FFF716FA78611E4BDC
:102038009B6D1D4A23F0805393657B69B3F5007F40
:102048000BD17B68802B19D97B68A02B02D902237E
:102058003B6113E001233B6110E07B68802B02D9D0
:1020680003233B610AE07B68802B02D102233B619A
:1020780004E07B68702B01D101233B610B4B1B688B
:1020880023F0070209493B6913430B60074B1B68A0
:1020980003F007033A699A4201D0012300E00023C4
:1020A80018461837BD4680BD001002400020024087
:1020B80002440346934200D1704703F8011BF9E735
:1020C800014B1868704700BF7800002070B50D4DAF
:1020D8000D4C641BA4100026A64209D10B4D0C4CD4
:1020E80000F052FF641BA4100026A64205D170BD63
:1020F80055F8043B98470136EEE755F8043B9847F6
:102108000136F2E7183000081830000818300008C7
:102118001C300008F8B52DED028BB0EE408AF0EEC9
:10212800608A55EC114B00F073F822462B46204686
:10213800294657EC106BFEF799FC00283BD151EC6F
:10214800180B00220023FEF75FFCB8B10022002321
:1021580020462946FEF758FC002846D145EC104B8E
:1021680000F048F838B30022002320462946FEF73D
:1021780055FC00B3FFF7A4FF22231BE047EC106BCC
:1021880000F038F8E0B9B0EE480AF0EE680A00F05E
:1021980031F8A8B145EC104B00F02CF880B132466C
:1021A8003B4630463946FEF761FC0028E2D0FFF78F
:1021B80087FF21230360BDEC028B47EC106BF8BD51
:1021C8000022002330463946FEF71EFC0028F2D0D4
:1021D800B0EE480AF0EE680A00F00CF80028EAD0E1
:1021E80045EC104B00F006F8C3E7014F0026E2E784
:1021F8000000F03F82B08DED000B019840F00040E8
:1022080000F58010C00F02B0704700000000000009
:102218002DE9F04F2DED068B89B08DED001BDDE922
:10222800002929F0004858EA020157EC106B15D133
:10223800B31987F4002252419942894B934180F0A7
:10224800D184DDE9002330463946FDF7BFFF41EC74
:10225800100B09B0BDEC068BBDE8F08F814B27F061
:1022680000449C4210EE10AA3D4606DC01D1002E27
:10227800E7D1984501DC0FD172B105F1404505F56C
:10228800801555EA0A05DCD1DDE90032DB1882F455
:10229800002252419D42D0E7002D3BDA724B98450F
:1022A80051DCA3F15473984540F3AB844FEA2853AB
:1022B800A3F2FF33142B0FDDC3F1340322FA03F129
:1022C80001FA03F3934240F09C8401F00101C1F14B
:1022D8000203049382B15FE0002A5BD1C3F11403C7
:1022E80048FA03F101FA03F3434540F0878401F00B
:1022F8000101C1F1020304935C4B984532D1B9F155
:10230800000F80F27784594932463B460020FEF799
:102318003DFA9CE700230493002A3DD1514B984590
:10232800EAD104F1404303F5801353EA0A0300F0AD
:1023380059844F4B9C4208DDB9F1000FC0F2568416
:10234800DDE9000183E70223E5E7B9F1000F4FF06B
:1023580000004FF00001BFF67AAFDDE9000303F19A
:10236800004174E7B9F1804F06D132463B4630460A
:102378003946FEF7E1F86AE73E4B99450CD1002D46
:102388000ADB47EC106B09B0BDEC068BBDE8F04FDB
:1023980000F020BD0023049347EC106B00F062FCB2
:1023A80051EC100BBAF1000F29D124B12F4B25F0B5
:1023B80040429A4223D1B9F1000F05DA02460B4692
:1023C80000202A49FEF7E2F9002DBFF640AF049B32
:1023D80004F1404404F580141C4308D102460B461E
:1023E80010461946FDF7F0FE02460B468FE7049BA0
:1023F800012B7FF42CAF01F10043194627E7EB0FBF
:10240800013B0693069A049B134302D132463B468E
:10241800E6E7194B984540F3FB8003F104739845B0
:10242800134B0CDD9C420FDCB9F1000F0FDA0020D2
:1024380009B0BDEC068BBDE8F04F00F0C2BC9C4271
:10244800F2DB0A4B9C4219DDB9F1000FEFDC0020EA
:1024580009B0BDEC068BBDE8F04F00F0A9BC00BF89
:102468000000F0FF0000F07FFFFF3F430000F03F57
:10247800FFFFEF3F0000E03F0000E041604B00221B
:10248800FDF7A2FE54A3D3E9002304460D46FEF748
:1024980053F853A3D3E9002306460F46204629469E
:1024A800FEF74AF8574B82468B46002220462946BB
:1024B800FEF742F802460B464BA1D1E90001FDF7B1
:1024C80083FE22462B46FEF737F802460B460020CD
:1024D8004D49FDF779FE2246804689462B4620461F
:1024E8002946FEF729F802460B4640464946FEF7BC
:1024F80023F83FA3D3E90023FEF71EF802460B4654
:1025080050465946FDF760FE02460B46804689460E
:1025180030463946FDF75AFE002032463B4604460F
:102528000D46FDF751FE02460B4640464946FDF76B
:102538004BFE049B069A013B134382468B4640F0B0
:10254800E7819FED2D7BB0EE478AF0EE678ADDE9E3
:102558000067002632463B46DDE90001FDF734FE00
:1025680022462B46FDF7E8FFDDE900238046894631
:1025780050465946FDF7E0FF02460B46404649469D
:10258800FDF724FE32463B468046894620462946CA
:10259800FDF7D2FF0B4604460D4602464946404623
:1025A800FDF714FE194B994245EC194B06460F46A8
:1025B8008B4640F3F08201F13F4303F5E003034308
:1025C80000F0E48151EC180B00220023FEF726FAF4
:1025D800003818BF01202BE7000000604715F73FBF
:1025E80044DF5DF80BAE543E555555555555D53F0E
:1025F800FE822B654715F73F000000000000F0BF82
:102608000000F03F0000D03F0000E03FFFFF8F4098
:10261800D54B2B4000222BB9D44BFDF78DFF6FF023
:1026280034020C462315A3F2FF3313440593D04B11
:10263800C4F3130444F07F559C4245F4401508DD6B
:10264800CC4B9C4240F36281059B01330593A5F571
:1026580080150024E3000793C74B03EBC40393EDF5
:10266800007B294653EC172BB0EE479AF0EE679A99
:102678008246FDF7A9FD524606460F462B4651EC09
:10268800190BFDF7A3FD02460B460020BB49FEF7D8
:102698007DF841EC1A0B02460B4630463946FDF7E9
:1026A8004BFF0023CDE902010293DDE90289AB4625
:1026B8006D1045F0005505F5002541EC180B05EBAC
:1026C800844300224046494614461D46FDF734FF20
:1026D80002460B4630463946FDF776FD53EC192B7A
:1026E80006460F4620462946FDF76EFD02460B4674
:1026F80050465946FDF768FD42464B46FDF71CFF1C
:1027080002460B4630463946FDF75EFD53EC1A2B60
:10271800FDF712FF53EC182B41EC190B51EC180B79
:10272800FDF70AFF7CA3D3E9002304460D46FDF715
:1027380003FF7BA3D3E90023FDF748FD22462B4680
:10274800FDF7FAFE78A3D3E90023FDF73FFD224603
:102758002B46FDF7F1FE76A3D3E90023FDF736FDFE
:1027680022462B46FDF7E8FE73A3D3E90023FDF7C5
:102778002DFD22462B46FDF7DFFE71A3D3E900238A
:10278800FDF724FD224606460F462B4620462946DD
:10279800FDF7D2FE02460B4630463946FDF7CCFE21
:1027A800424604460D464B4651EC180BFDF70EFD0C
:1027B80053EC192BFDF7C0FE22462B46FDF706FD0C
:1027C800424682468B464B4640464946FDF7B4FE94
:1027D8006B4B002206460F46FDF7F8FC52465B4657
:1027E800FDF7F4FC002004460D4602460B46404621
:1027F8004946FDF7A1FE624B8046894600222046E5
:102808002946FDF7E1FC32463B46FDF7DDFC024672
:102818000B4650465946FDF7D7FC53EC182BFDF7ED
:102828008BFE224606460F462B4651EC190BFDF748
:1028380083FE02460B4630463946FDF7C7FC06467E
:102848000F4602460B4640464946FDF7BFFC3EA3ED
:10285800D3E90023002004460D46FDF76DFE4246ED
:1028680041EC180B4B4620462946FDF7ADFC0246C5
:102878000B4630463946FDF7A7FC35A3D3E90023BC
:10288800FDF75AFE34A3D3E9002306460F46204637
:102898002946FDF751FE02460B4630463946FDF7FC
:1028A80095FC079A374B1344D3E90023FDF78EFCB8
:1028B800824605988B46FDF7D5FD079A324B13449F
:1028C800D3E9008906460F4652465B4651EC180B81
:1028D800FDF77CFC42464B46FDF778FC32463B460A
:1028E800FDF774FC002032463B4604460D46FDF7D2
:1028F8006BFC42464B46FDF767FC53EC182BFDF783
:1029080063FC02460B465046594610E60124A1E6F0
:102918009FED137B17E600BFEF4E454A287ECA3F5E
:1029280065DBC9934A86CD3F01411DA96074D13F3B
:102938004D268F515555D53FFFAB6FDBB66DDB3F4D
:10294800033333333333E33F000000E009C7EE3F7E
:10295800FD033ADC09C7EE3FF5015B14E02F3EBEEC
:10296800000000000000F03F0000F07F000040433E
:102978008E98030079B60B00E82F00080000F03F9E
:102988000000084008300008F82F0008B3A3D3E976
:10299800002340464946FDF719FC224641EC1A0B34
:1029A8002B4630463946FDF70FFC02460B4651ECE4
:1029B8001A0BFEF751F800287FF404AEA24A2BF058
:1029C8000043934240F307811B15A3F2FE334FF4F3
:1029D800801A4AFA03FADA44CAF30A519B48A1F268
:1029E800FF31084100EA0A03CAF3130AC1F11401CE
:1029F8004AF4801A4AFA01FABBF1000F4FF00002BC
:102A080020462946B8BFCAF1000AFDF7DDFB41ECB4
:102A1800190B42464B4651EC190BFDF7D7FB7AA32D
:102A2800D3E90023002004460D46FDF785FD53EC4D
:102A3800192B06460F4620462946FDF7C5FB0246D8
:102A48000B4640464946FDF7BFFB71A3D3E9002377
:102A5800FDF772FD70A3D3E900238046894620461E
:102A68002946FDF769FD02460B4640464946FDF7F3
:102A7800ADFB04460D4602460B4630463946FDF787
:102A8800A5FB32463B4680468946FDF79DFB02463C
:102A98000B4620462946FDF797FB424606460F4659
:102AA8004B4640464946FDF747FD5DA3D3E9002361
:102AB80004460D46FDF740FD5BA3D3E90023FDF76F
:102AC80083FB22462B46FDF737FD59A3D3E90023A4
:102AD800FDF77CFB22462B46FDF72EFD56A3D3E9D6
:102AE8000023FDF771FB22462B46FDF725FD54A375
:102AF800D3E90023FDF76AFB22462B46FDF71CFDB0
:102B080002460B4640464946FDF75EFB04460D4625
:102B180002460B4640464946FDF70EFD002241ECB1
:102B2800190B4FF0804320462946FDF74DFB02461E
:102B38000B4651EC190BFDF729FE324604460D46AB
:102B48003B4640464946FDF7F7FC32463B46FDF713
:102B58003DFB02460B4620462946FDF735FB42461B
:102B68004B46FDF731FB0B46024639490020FDF77D
:102B78002BFB41EC100B10EE903A03EB0A53B3F524
:102B8800801F2BDA504600F077F851EC100B53EC0D
:102B9800182BFFF7EEBB2F4B21F000469E427FF724
:102BA8000DAF2D4B0B44034309D051EC180B0022F9
:102BB8000023FDF733FF003818BF012048E4224600
:102BC8002B46FDF701FB42464B46FDF73BFF00282D
:102BD8003FF4F4AEE9E74FF0000A1AE751EC100BA6
:102BE8001946D4E71A490020FFF731BB002000211D
:102BF800FFF72DBB30463946FFF729BB0492FFF794
:102C08007BBB0023FFF765BB00000000432EE63FB7
:102C1800EF39FAFE422EE63F396CA80C615C20BE03
:102C2800D0A4BE726937663EF16BD2C541BDBB3ECA
:102C38002CDE25AF6A56113F93BDBE166CC1663FA8
:102C48003E5555555555C53F0000E03F0000F0FF83
:102C58000000F03FFFCB904000346F3FFE822B65B1
:102C68004715973C51EC100B10EE102A21F0004349
:102C780043EC102B7047000070B555EC104BC5F3B2
:102C88000A5106462B4699B925F0004323433FD005
:102C9800354B294610EE100A0022FDF74DFC334B48
:102CA8009E4204460D4610DA27A3D3E900231FE00D
:102CB80040F2FF7291420CD110EE102A20462946AC
:102CC800FDF784FA04460D4622E00B46C1F30A518B
:102CD80036394CF2503296420DDD002D1CA1D1E957
:102CE800000102DA1CA1D1E9000119A3D3E90023EC
:102CF800FDF722FCE6E7721840F2FE718A42ECDC2E
:102D0800002A08DD23F0FF4323F4E00343EA0255D9
:102D180045EC104B70BD12F1350F08DA002D0AA1F1
:102D2800D1E90001C0DA0EA1D1E90001BCE723F026
:102D3800FF43363223F4E00343EA025120460C4BAA
:102D48000022D5E7AFF3008059F3F8C21F6EA50142
:102D58009C7500883CE4377E9C7500883CE437FE0F
:102D680059F3F8C21F6EA58100005043B03CFFFF25
:102D78000000903C70B504460D461646FFF7A0F9D2
:102D880029460660204670BD37B514461D4608B171
:102D980003F10043CDE90023DDE90023204629465D
:102DA800FDF7CAFB222203B0BDE83040FFF7E2BFBF
:102DB80008B500224FF08053FFF7E6FF41EC100BF7
:102DC80008BD08B500224FF0E043FFF7DDFF41ECF6
:102DD800100B08BD2DE9F84F55EC104B674EAE436C
:102DE80010EE100A10EE102A29462B460DD1FDF7D9
:102DF800A3FB02460B4620462946FDF7E7F90446A1
:102E08000D4645EC104BBDE8F88F002D0BDC25F086
:102E180000462643F5D035B1FDF7D6F902460B46F4
:102E2800FDF7B4FCEBE7091500F08D80C3F313033D
:102E3800A1F2FF3643F48013C9075CBF5B0003EBC4
:102E4800D2734FEA430358BF5200002503EBD273F5
:102E5800761052004FF0160EAC464FF400110CEBF2
:102E680001009842DEBF1B1A00EB010C6D185B00D5
:102E7800BEF1010E03EBD2734FEA51014FEA420251
:102E8800EDD1744620274FF00041634501EB0E0059
:102E980002DC13D1904211D8002800EB010E57DA5A
:102EA800BEF1000F54DB0CF10108A3EB0C039042B8
:102EB80088BF03F1FF33121A0C44C4465B00013F7C
:102EC80003EBD2734FEA51014FEA4202DDD11343BB
:102ED8001BD0DFF8ACA0DFF8ACB0DAE90001DBE921
:102EE8000023FDF771F9DAE9008902460B464046EE
:102EF8004946FDF79DFD40B1B4F1FF3FDAE9000115
:102F0800DBE9002326D101353C466A106308E9074E
:102F180002F17F5202F5001248BF43F0004302EB72
:102F280006551C466DE7D30A15385205002BFAD012
:102F3800DC020AD5C1F1200422FA04F44D1E8A40AD
:102F48002343411B72E70846F0E75B000131EFE7D6
:102F5800E046AAE7FDF73AF9DAE9008902460B46A6
:102F680040464946FDF75AFD20B1A01C08BF01356F
:102F78000234CAE7013424F00104C6E70000F07FF8
:102F88008000002088000020F8B500BFF8BC08BC0D
:102F98009E467047F8B500BFF8BC08BC9E4670470F
:102FA80000000000000000000102030406070809F1
:102FB800A0860100400D0300801A060000350C00B1
:102FC80040420F0080841E0000093D0000127A0074
:102FD8000024F40000366E010048E801006CDC02B1
:102FE800000000000000F03F000000000000F83F73
:102FF80000000000000000000000004003B8E23FAD
:10300800000000000000000006D0CF43EBFD4C3E5E
:04301800AD010008FE
:04301C00890100081E
:1030200080000000400000002000000010000000B0
:103030000800000004000000020000000100000081
:1030400000093D0010000000010000000000000029
:10305000B40000201C0100208401002000000000BA
:103060000000000000000000000000000000000060
:103070000000000000000000000000000000000050
:103080000000000000000000000000000000000040
:1030900000000000000000002C00002000000000E4
:1030A000000000000000F03F59F3F8C21F6EA501B8
:0400000508000D8D55
:00000001FF
